{
  "_format": "hh-sol-artifact-1",
  "contractName": "Token",
  "sourceName": "contracts/Token.sol",
  "abi": [
    {
      "inputs": [],
      "stateMutability": "nonpayable",
      "type": "constructor"
    },
    {
      "anonymous": false,
      "inputs": [
        {
          "indexed": true,
          "internalType": "address",
          "name": "owner",
          "type": "address"
        },
        {
          "indexed": true,
          "internalType": "address",
          "name": "approved",
          "type": "address"
        },
        {
          "indexed": true,
          "internalType": "uint256",
          "name": "tokenId",
          "type": "uint256"
        }
      ],
      "name": "Approval",
      "type": "event"
    },
    {
      "anonymous": false,
      "inputs": [
        {
          "indexed": true,
          "internalType": "address",
          "name": "owner",
          "type": "address"
        },
        {
          "indexed": true,
          "internalType": "address",
          "name": "operator",
          "type": "address"
        },
        {
          "indexed": false,
          "internalType": "bool",
          "name": "approved",
          "type": "bool"
        }
      ],
      "name": "ApprovalForAll",
      "type": "event"
    },
    {
      "anonymous": false,
      "inputs": [
        {
          "indexed": true,
          "internalType": "uint256",
          "name": "tokenId",
          "type": "uint256"
        },
        {
          "indexed": false,
          "internalType": "string",
          "name": "videoId",
          "type": "string"
        }
      ],
      "name": "MintedNft",
      "type": "event"
    },
    {
      "anonymous": false,
      "inputs": [
        {
          "indexed": true,
          "internalType": "address",
          "name": "previousOwner",
          "type": "address"
        },
        {
          "indexed": true,
          "internalType": "address",
          "name": "newOwner",
          "type": "address"
        }
      ],
      "name": "OwnershipTransferred",
      "type": "event"
    },
    {
      "anonymous": false,
      "inputs": [
        {
          "indexed": true,
          "internalType": "address",
          "name": "from",
          "type": "address"
        },
        {
          "indexed": true,
          "internalType": "address",
          "name": "to",
          "type": "address"
        },
        {
          "indexed": true,
          "internalType": "uint256",
          "name": "tokenId",
          "type": "uint256"
        }
      ],
      "name": "Transfer",
      "type": "event"
    },
    {
      "inputs": [
        {
          "internalType": "address",
          "name": "to",
          "type": "address"
        },
        {
          "internalType": "uint256",
          "name": "tokenId",
          "type": "uint256"
        }
      ],
      "name": "approve",
      "outputs": [],
      "stateMutability": "nonpayable",
      "type": "function"
    },
    {
      "inputs": [
        {
          "internalType": "address",
          "name": "owner",
          "type": "address"
        }
      ],
      "name": "balanceOf",
      "outputs": [
        {
          "internalType": "uint256",
          "name": "",
          "type": "uint256"
        }
      ],
      "stateMutability": "view",
      "type": "function"
    },
    {
      "inputs": [
        {
          "internalType": "uint256",
          "name": "tokenId",
          "type": "uint256"
        }
      ],
      "name": "getApproved",
      "outputs": [
        {
          "internalType": "address",
          "name": "",
          "type": "address"
        }
      ],
      "stateMutability": "view",
      "type": "function"
    },
    {
      "inputs": [
        {
          "internalType": "address",
          "name": "owner",
          "type": "address"
        },
        {
          "internalType": "address",
          "name": "operator",
          "type": "address"
        }
      ],
      "name": "isApprovedForAll",
      "outputs": [
        {
          "internalType": "bool",
          "name": "",
          "type": "bool"
        }
      ],
      "stateMutability": "view",
      "type": "function"
    },
    {
      "inputs": [
        {
          "components": [
            {
              "internalType": "string",
              "name": "id",
              "type": "string"
            },
            {
              "internalType": "string",
              "name": "title",
              "type": "string"
            },
            {
              "internalType": "string",
              "name": "channelId",
              "type": "string"
            },
            {
              "internalType": "string",
              "name": "channelName",
              "type": "string"
            },
            {
              "internalType": "string",
              "name": "thumbnailUri",
              "type": "string"
            },
            {
              "internalType": "string",
              "name": "videoUri",
              "type": "string"
            },
            {
              "internalType": "string",
              "name": "description",
              "type": "string"
            },
            {
              "internalType": "string",
              "name": "publishedAt",
              "type": "string"
            },
            {
              "internalType": "string",
              "name": "views",
              "type": "string"
            },
            {
              "internalType": "string",
              "name": "likes",
              "type": "string"
            },
            {
              "internalType": "string",
              "name": "dislikes",
              "type": "string"
            },
            {
              "internalType": "string",
              "name": "commentCount",
              "type": "string"
            }
          ],
          "internalType": "struct Token.Video",
          "name": "vid",
          "type": "tuple"
        }
      ],
      "name": "mintNft",
      "outputs": [],
      "stateMutability": "nonpayable",
      "type": "function"
    },
    {
      "inputs": [],
      "name": "name",
      "outputs": [
        {
          "internalType": "string",
          "name": "",
          "type": "string"
        }
      ],
      "stateMutability": "view",
      "type": "function"
    },
    {
      "inputs": [],
      "name": "owner",
      "outputs": [
        {
          "internalType": "address",
          "name": "",
          "type": "address"
        }
      ],
      "stateMutability": "view",
      "type": "function"
    },
    {
      "inputs": [
        {
          "internalType": "uint256",
          "name": "tokenId",
          "type": "uint256"
        }
      ],
      "name": "ownerOf",
      "outputs": [
        {
          "internalType": "address",
          "name": "",
          "type": "address"
        }
      ],
      "stateMutability": "view",
      "type": "function"
    },
    {
      "inputs": [],
      "name": "renounceOwnership",
      "outputs": [],
      "stateMutability": "nonpayable",
      "type": "function"
    },
    {
      "inputs": [
        {
          "internalType": "address",
          "name": "from",
          "type": "address"
        },
        {
          "internalType": "address",
          "name": "to",
          "type": "address"
        },
        {
          "internalType": "uint256",
          "name": "tokenId",
          "type": "uint256"
        }
      ],
      "name": "safeTransferFrom",
      "outputs": [],
      "stateMutability": "nonpayable",
      "type": "function"
    },
    {
      "inputs": [
        {
          "internalType": "address",
          "name": "from",
          "type": "address"
        },
        {
          "internalType": "address",
          "name": "to",
          "type": "address"
        },
        {
          "internalType": "uint256",
          "name": "tokenId",
          "type": "uint256"
        },
        {
          "internalType": "bytes",
          "name": "_data",
          "type": "bytes"
        }
      ],
      "name": "safeTransferFrom",
      "outputs": [],
      "stateMutability": "nonpayable",
      "type": "function"
    },
    {
      "inputs": [
        {
          "internalType": "address",
          "name": "operator",
          "type": "address"
        },
        {
          "internalType": "bool",
          "name": "approved",
          "type": "bool"
        }
      ],
      "name": "setApprovalForAll",
      "outputs": [],
      "stateMutability": "nonpayable",
      "type": "function"
    },
    {
      "inputs": [
        {
          "internalType": "bytes4",
          "name": "interfaceId",
          "type": "bytes4"
        }
      ],
      "name": "supportsInterface",
      "outputs": [
        {
          "internalType": "bool",
          "name": "",
          "type": "bool"
        }
      ],
      "stateMutability": "view",
      "type": "function"
    },
    {
      "inputs": [],
      "name": "symbol",
      "outputs": [
        {
          "internalType": "string",
          "name": "",
          "type": "string"
        }
      ],
      "stateMutability": "view",
      "type": "function"
    },
    {
      "inputs": [
        {
          "internalType": "uint256",
          "name": "tokenId",
          "type": "uint256"
        }
      ],
      "name": "tokenURI",
      "outputs": [
        {
          "internalType": "string",
          "name": "",
          "type": "string"
        }
      ],
      "stateMutability": "view",
      "type": "function"
    },
    {
      "inputs": [
        {
          "internalType": "address",
          "name": "from",
          "type": "address"
        },
        {
          "internalType": "address",
          "name": "to",
          "type": "address"
        },
        {
          "internalType": "uint256",
          "name": "tokenId",
          "type": "uint256"
        }
      ],
      "name": "transferFrom",
      "outputs": [],
      "stateMutability": "nonpayable",
      "type": "function"
    },
    {
      "inputs": [
        {
          "internalType": "address",
          "name": "newOwner",
          "type": "address"
        }
      ],
      "name": "transferOwnership",
      "outputs": [],
      "stateMutability": "nonpayable",
      "type": "function"
    },
    {
      "inputs": [
        {
          "internalType": "string",
          "name": "",
          "type": "string"
        }
      ],
      "name": "videoIdToTokenId",
      "outputs": [
        {
          "internalType": "uint256",
          "name": "",
          "type": "uint256"
        }
      ],
      "stateMutability": "view",
      "type": "function"
    }
  ],
  "bytecode": "0x60806040523480156200001157600080fd5b506040518060400160405280601181526020017f596f7574756265204d6967726174696f6e0000000000000000000000000000008152506040518060400160405280600381526020017f5954330000000000000000000000000000000000000000000000000000000000815250816000908051906020019062000096929190620001ae565b508060019080519060200190620000af929190620001ae565b505050620000d2620000c6620000e060201b60201c565b620000e860201b60201c565b6001600781905550620002c2565b600033905090565b6000600660009054906101000a900473ffffffffffffffffffffffffffffffffffffffff16905081600660006101000a81548173ffffffffffffffffffffffffffffffffffffffff021916908373ffffffffffffffffffffffffffffffffffffffff1602179055508173ffffffffffffffffffffffffffffffffffffffff168173ffffffffffffffffffffffffffffffffffffffff167f8be0079c531659141344cd1fd0a4f28419497f9722a3daafe3b4186f6b6457e060405160405180910390a35050565b828054620001bc906200028d565b90600052602060002090601f016020900481019282620001e057600085556200022c565b82601f10620001fb57805160ff19168380011785556200022c565b828001600101855582156200022c579182015b828111156200022b5782518255916020019190600101906200020e565b5b5090506200023b91906200023f565b5090565b5b808211156200025a57600081600090555060010162000240565b5090565b7f4e487b7100000000000000000000000000000000000000000000000000000000600052602260045260246000fd5b60006002820490506001821680620002a657607f821691505b602082108103620002bc57620002bb6200025e565b5b50919050565b613c9e80620002d26000396000f3fe608060405234801561001057600080fd5b50600436106101165760003560e01c80637dd0f97b116100a2578063a22cb46511610071578063a22cb465146102df578063b88d4fde146102fb578063c87b56dd14610317578063e985e9c514610347578063f2fde38b1461037757610116565b80637dd0f97b1461025757806380638fef146102875780638da5cb5b146102a357806395d89b41146102c157610116565b806323b872dd116100e957806323b872dd146101b557806342842e0e146101d15780636352211e146101ed57806370a082311461021d578063715018a61461024d57610116565b806301ffc9a71461011b57806306fdde031461014b578063081812fc14610169578063095ea7b314610199575b600080fd5b61013560048036038101906101309190611c53565b610393565b6040516101429190611c9b565b60405180910390f35b610153610475565b6040516101609190611d4f565b60405180910390f35b610183600480360381019061017e9190611da7565b610507565b6040516101909190611e15565b60405180910390f35b6101b360048036038101906101ae9190611e5c565b61058c565b005b6101cf60048036038101906101ca9190611e9c565b6106a3565b005b6101eb60048036038101906101e69190611e9c565b610703565b005b61020760048036038101906102029190611da7565b610723565b6040516102149190611e15565b60405180910390f35b61023760048036038101906102329190611eef565b6107d4565b6040516102449190611f2b565b60405180910390f35b61025561088b565b005b610271600480360381019061026c919061207b565b610913565b60405161027e9190611f2b565b60405180910390f35b6102a1600480360381019061029c91906120e9565b610941565b005b6102ab610a7a565b6040516102b89190611e15565b60405180910390f35b6102c9610aa4565b6040516102d69190611d4f565b60405180910390f35b6102f960048036038101906102f4919061215e565b610b36565b005b6103156004803603810190610310919061223f565b610b4c565b005b610331600480360381019061032c9190611da7565b610bae565b60405161033e9190611d4f565b60405180910390f35b610361600480360381019061035c91906122c2565b610d38565b60405161036e9190611c9b565b60405180910390f35b610391600480360381019061038c9190611eef565b610dcc565b005b60007f80ac58cd000000000000000000000000000000000000000000000000000000007bffffffffffffffffffffffffffffffffffffffffffffffffffffffff1916827bffffffffffffffffffffffffffffffffffffffffffffffffffffffff1916148061045e57507f5b5e139f000000000000000000000000000000000000000000000000000000007bffffffffffffffffffffffffffffffffffffffffffffffffffffffff1916827bffffffffffffffffffffffffffffffffffffffffffffffffffffffff1916145b8061046e575061046d82610ec3565b5b9050919050565b60606000805461048490612331565b80601f01602080910402602001604051908101604052809291908181526020018280546104b090612331565b80156104fd5780601f106104d2576101008083540402835291602001916104fd565b820191906000526020600020905b8154815290600101906020018083116104e057829003601f168201915b5050505050905090565b600061051282610f2d565b610551576040517f08c379a0000000000000000000000000000000000000000000000000000000008152600401610548906123d4565b60405180910390fd5b6004600083815260200190815260200160002060009054906101000a900473ffffffffffffffffffffffffffffffffffffffff169050919050565b600061059782610723565b90508073ffffffffffffffffffffffffffffffffffffffff168373ffffffffffffffffffffffffffffffffffffffff1603610607576040517f08c379a00000000000000000000000000000000000000000000000000000000081526004016105fe90612466565b60405180910390fd5b8073ffffffffffffffffffffffffffffffffffffffff16610626610f99565b73ffffffffffffffffffffffffffffffffffffffff16148061065557506106548161064f610f99565b610d38565b5b610694576040517f08c379a000000000000000000000000000000000000000000000000000000000815260040161068b906124f8565b60405180910390fd5b61069e8383610fa1565b505050565b6106b46106ae610f99565b8261105a565b6106f3576040517f08c379a00000000000000000000000000000000000000000000000000000000081526004016106ea9061258a565b60405180910390fd5b6106fe838383611138565b505050565b61071e83838360405180602001604052806000815250610b4c565b505050565b6000806002600084815260200190815260200160002060009054906101000a900473ffffffffffffffffffffffffffffffffffffffff169050600073ffffffffffffffffffffffffffffffffffffffff168173ffffffffffffffffffffffffffffffffffffffff16036107cb576040517f08c379a00000000000000000000000000000000000000000000000000000000081526004016107c29061261c565b60405180910390fd5b80915050919050565b60008073ffffffffffffffffffffffffffffffffffffffff168273ffffffffffffffffffffffffffffffffffffffff1603610844576040517f08c379a000000000000000000000000000000000000000000000000000000000815260040161083b906126ae565b60405180910390fd5b600360008373ffffffffffffffffffffffffffffffffffffffff1673ffffffffffffffffffffffffffffffffffffffff168152602001908152602001600020549050919050565b610893610f99565b73ffffffffffffffffffffffffffffffffffffffff166108b1610a7a565b73ffffffffffffffffffffffffffffffffffffffff1614610907576040517f08c379a00000000000000000000000000000000000000000000000000000000081526004016108fe9061271a565b60405180910390fd5b610911600061139e565b565b6008818051602081018201805184825260208301602085012081835280955050505050506000915090505481565b600060088280600001906109559190612749565b6040516109639291906127dc565b908152602001604051809103902054146109b2576040517f08c379a00000000000000000000000000000000000000000000000000000000081526004016109a990612867565b60405180910390fd5b6109be33600754611464565b8060096000600754815260200190815260200160002081816109e09190612cb2565b90505060075460088280600001906109f89190612749565b604051610a069291906127dc565b9081526020016040518091039020819055506007547f8eca1e16d70780051258dcc7ad824145720d8baebe87d728dbf125637d2230d8828060000190610a4c9190612749565b604051610a5a929190612ced565b60405180910390a26001600754610a719190612d40565b60078190555050565b6000600660009054906101000a900473ffffffffffffffffffffffffffffffffffffffff16905090565b606060018054610ab390612331565b80601f0160208091040260200160405190810160405280929190818152602001828054610adf90612331565b8015610b2c5780601f10610b0157610100808354040283529160200191610b2c565b820191906000526020600020905b815481529060010190602001808311610b0f57829003601f168201915b5050505050905090565b610b48610b41610f99565b8383611482565b5050565b610b5d610b57610f99565b8361105a565b610b9c576040517f08c379a0000000000000000000000000000000000000000000000000000000008152600401610b939061258a565b60405180910390fd5b610ba8848484846115ee565b50505050565b6060610bb982610f2d565b610bf8576040517f08c379a0000000000000000000000000000000000000000000000000000000008152600401610bef90612e08565b60405180910390fd5b60006009600084815260200190815260200160002090506000816000018054610c2090612331565b905003610c62576040517f08c379a0000000000000000000000000000000000000000000000000000000008152600401610c5990612e9a565b60405180910390fd5b60008160010182600601836004018460050185600701866000018760020188600301896008018a6009018b600a018c600b01604051602001610cab9897969594939291906132a3565b604051602081830303815290604052604051602001610cce959493929190613556565b604051602081830303815290604052604051602001610ced91906135d8565b6040516020818303038152906040529050610d0661164a565b610d0f82611687565b604051602001610d20929190613620565b60405160208183030381529060405292505050919050565b6000600560008473ffffffffffffffffffffffffffffffffffffffff1673ffffffffffffffffffffffffffffffffffffffff16815260200190815260200160002060008373ffffffffffffffffffffffffffffffffffffffff1673ffffffffffffffffffffffffffffffffffffffff16815260200190815260200160002060009054906101000a900460ff16905092915050565b610dd4610f99565b73ffffffffffffffffffffffffffffffffffffffff16610df2610a7a565b73ffffffffffffffffffffffffffffffffffffffff1614610e48576040517f08c379a0000000000000000000000000000000000000000000000000000000008152600401610e3f9061271a565b60405180910390fd5b600073ffffffffffffffffffffffffffffffffffffffff168173ffffffffffffffffffffffffffffffffffffffff1603610eb7576040517f08c379a0000000000000000000000000000000000000000000000000000000008152600401610eae906136b6565b60405180910390fd5b610ec08161139e565b50565b60007f01ffc9a7000000000000000000000000000000000000000000000000000000007bffffffffffffffffffffffffffffffffffffffffffffffffffffffff1916827bffffffffffffffffffffffffffffffffffffffffffffffffffffffff1916149050919050565b60008073ffffffffffffffffffffffffffffffffffffffff166002600084815260200190815260200160002060009054906101000a900473ffffffffffffffffffffffffffffffffffffffff1673ffffffffffffffffffffffffffffffffffffffff1614159050919050565b600033905090565b816004600083815260200190815260200160002060006101000a81548173ffffffffffffffffffffffffffffffffffffffff021916908373ffffffffffffffffffffffffffffffffffffffff160217905550808273ffffffffffffffffffffffffffffffffffffffff1661101483610723565b73ffffffffffffffffffffffffffffffffffffffff167f8c5be1e5ebec7d5bd14f71427d1e84f3dd0314c0f7b2291e5b200ac8c7c3b92560405160405180910390a45050565b600061106582610f2d565b6110a4576040517f08c379a000000000000000000000000000000000000000000000000000000000815260040161109b90613748565b60405180910390fd5b60006110af83610723565b90508073ffffffffffffffffffffffffffffffffffffffff168473ffffffffffffffffffffffffffffffffffffffff1614806110f157506110f08185610d38565b5b8061112f57508373ffffffffffffffffffffffffffffffffffffffff1661111784610507565b73ffffffffffffffffffffffffffffffffffffffff16145b91505092915050565b8273ffffffffffffffffffffffffffffffffffffffff1661115882610723565b73ffffffffffffffffffffffffffffffffffffffff16146111ae576040517f08c379a00000000000000000000000000000000000000000000000000000000081526004016111a5906137da565b60405180910390fd5b600073ffffffffffffffffffffffffffffffffffffffff168273ffffffffffffffffffffffffffffffffffffffff160361121d576040517f08c379a00000000000000000000000000000000000000000000000000000000081526004016112149061386c565b60405180910390fd5b6112288383836117ff565b611233600082610fa1565b6001600360008573ffffffffffffffffffffffffffffffffffffffff1673ffffffffffffffffffffffffffffffffffffffff1681526020019081526020016000206000828254611283919061388c565b925050819055506001600360008473ffffffffffffffffffffffffffffffffffffffff1673ffffffffffffffffffffffffffffffffffffffff16815260200190815260200160002060008282546112da9190612d40565b92505081905550816002600083815260200190815260200160002060006101000a81548173ffffffffffffffffffffffffffffffffffffffff021916908373ffffffffffffffffffffffffffffffffffffffff160217905550808273ffffffffffffffffffffffffffffffffffffffff168473ffffffffffffffffffffffffffffffffffffffff167fddf252ad1be2c89b69c2b068fc378daa952ba7f163c4a11628f55a4df523b3ef60405160405180910390a4611399838383611804565b505050565b6000600660009054906101000a900473ffffffffffffffffffffffffffffffffffffffff16905081600660006101000a81548173ffffffffffffffffffffffffffffffffffffffff021916908373ffffffffffffffffffffffffffffffffffffffff1602179055508173ffffffffffffffffffffffffffffffffffffffff168173ffffffffffffffffffffffffffffffffffffffff167f8be0079c531659141344cd1fd0a4f28419497f9722a3daafe3b4186f6b6457e060405160405180910390a35050565b61147e828260405180602001604052806000815250611809565b5050565b8173ffffffffffffffffffffffffffffffffffffffff168373ffffffffffffffffffffffffffffffffffffffff16036114f0576040517f08c379a00000000000000000000000000000000000000000000000000000000081526004016114e79061390c565b60405180910390fd5b80600560008573ffffffffffffffffffffffffffffffffffffffff1673ffffffffffffffffffffffffffffffffffffffff16815260200190815260200160002060008473ffffffffffffffffffffffffffffffffffffffff1673ffffffffffffffffffffffffffffffffffffffff16815260200190815260200160002060006101000a81548160ff0219169083151502179055508173ffffffffffffffffffffffffffffffffffffffff168373ffffffffffffffffffffffffffffffffffffffff167f17307eab39ab6107e8899845ad3d59bd9653f200f220920489ca2b5937696c31836040516115e19190611c9b565b60405180910390a3505050565b6115f9848484611138565b61160584848484611864565b611644576040517f08c379a000000000000000000000000000000000000000000000000000000000815260040161163b9061399e565b60405180910390fd5b50505050565b60606040518060400160405280601d81526020017f646174613a6170706c69636174696f6e2f6a736f6e3b6261736536342c000000815250905090565b606060008251036116a9576040518060200160405280600081525090506117fa565b6000604051806060016040528060408152602001613c2960409139905060006003600285516116d89190612d40565b6116e291906139ed565b60046116ee9190613a1e565b905060006020826116ff9190612d40565b67ffffffffffffffff81111561171857611717611f50565b5b6040519080825280601f01601f19166020018201604052801561174a5781602001600182028036833780820191505090505b509050818152600183018586518101602084015b818310156117b9576003830192508251603f8160121c168501518253600182019150603f81600c1c168501518253600182019150603f8160061c168501518253600182019150603f811685015182536001820191505061175e565b6003895106600181146117d357600281146117e3576117ee565b613d3d60f01b60028303526117ee565b603d60f81b60018303525b50505050508093505050505b919050565b505050565b505050565b61181383836119eb565b6118206000848484611864565b61185f576040517f08c379a00000000000000000000000000000000000000000000000000000000081526004016118569061399e565b60405180910390fd5b505050565b60006118858473ffffffffffffffffffffffffffffffffffffffff16611bc4565b156119de578373ffffffffffffffffffffffffffffffffffffffff1663150b7a026118ae610f99565b8786866040518563ffffffff1660e01b81526004016118d09493929190613ac2565b6020604051808303816000875af192505050801561190c57506040513d601f19601f820116820180604052508101906119099190613b23565b60015b61198e573d806000811461193c576040519150601f19603f3d011682016040523d82523d6000602084013e611941565b606091505b506000815103611986576040517f08c379a000000000000000000000000000000000000000000000000000000000815260040161197d9061399e565b60405180910390fd5b805181602001fd5b63150b7a0260e01b7bffffffffffffffffffffffffffffffffffffffffffffffffffffffff1916817bffffffffffffffffffffffffffffffffffffffffffffffffffffffff1916149150506119e3565b600190505b949350505050565b600073ffffffffffffffffffffffffffffffffffffffff168273ffffffffffffffffffffffffffffffffffffffff1603611a5a576040517f08c379a0000000000000000000000000000000000000000000000000000000008152600401611a5190613b9c565b60405180910390fd5b611a6381610f2d565b15611aa3576040517f08c379a0000000000000000000000000000000000000000000000000000000008152600401611a9a90613c08565b60405180910390fd5b611aaf600083836117ff565b6001600360008473ffffffffffffffffffffffffffffffffffffffff1673ffffffffffffffffffffffffffffffffffffffff1681526020019081526020016000206000828254611aff9190612d40565b92505081905550816002600083815260200190815260200160002060006101000a81548173ffffffffffffffffffffffffffffffffffffffff021916908373ffffffffffffffffffffffffffffffffffffffff160217905550808273ffffffffffffffffffffffffffffffffffffffff16600073ffffffffffffffffffffffffffffffffffffffff167fddf252ad1be2c89b69c2b068fc378daa952ba7f163c4a11628f55a4df523b3ef60405160405180910390a4611bc060008383611804565b5050565b6000808273ffffffffffffffffffffffffffffffffffffffff163b119050919050565b6000604051905090565b600080fd5b600080fd5b60007fffffffff0000000000000000000000000000000000000000000000000000000082169050919050565b611c3081611bfb565b8114611c3b57600080fd5b50565b600081359050611c4d81611c27565b92915050565b600060208284031215611c6957611c68611bf1565b5b6000611c7784828501611c3e565b91505092915050565b60008115159050919050565b611c9581611c80565b82525050565b6000602082019050611cb06000830184611c8c565b92915050565b600081519050919050565b600082825260208201905092915050565b60005b83811015611cf0578082015181840152602081019050611cd5565b83811115611cff576000848401525b50505050565b6000601f19601f8301169050919050565b6000611d2182611cb6565b611d2b8185611cc1565b9350611d3b818560208601611cd2565b611d4481611d05565b840191505092915050565b60006020820190508181036000830152611d698184611d16565b905092915050565b6000819050919050565b611d8481611d71565b8114611d8f57600080fd5b50565b600081359050611da181611d7b565b92915050565b600060208284031215611dbd57611dbc611bf1565b5b6000611dcb84828501611d92565b91505092915050565b600073ffffffffffffffffffffffffffffffffffffffff82169050919050565b6000611dff82611dd4565b9050919050565b611e0f81611df4565b82525050565b6000602082019050611e2a6000830184611e06565b92915050565b611e3981611df4565b8114611e4457600080fd5b50565b600081359050611e5681611e30565b92915050565b60008060408385031215611e7357611e72611bf1565b5b6000611e8185828601611e47565b9250506020611e9285828601611d92565b9150509250929050565b600080600060608486031215611eb557611eb4611bf1565b5b6000611ec386828701611e47565b9350506020611ed486828701611e47565b9250506040611ee586828701611d92565b9150509250925092565b600060208284031215611f0557611f04611bf1565b5b6000611f1384828501611e47565b91505092915050565b611f2581611d71565b82525050565b6000602082019050611f406000830184611f1c565b92915050565b600080fd5b600080fd5b7f4e487b7100000000000000000000000000000000000000000000000000000000600052604160045260246000fd5b611f8882611d05565b810181811067ffffffffffffffff82111715611fa757611fa6611f50565b5b80604052505050565b6000611fba611be7565b9050611fc68282611f7f565b919050565b600067ffffffffffffffff821115611fe657611fe5611f50565b5b611fef82611d05565b9050602081019050919050565b82818337600083830152505050565b600061201e61201984611fcb565b611fb0565b90508281526020810184848401111561203a57612039611f4b565b5b612045848285611ffc565b509392505050565b600082601f83011261206257612061611f46565b5b813561207284826020860161200b565b91505092915050565b60006020828403121561209157612090611bf1565b5b600082013567ffffffffffffffff8111156120af576120ae611bf6565b5b6120bb8482850161204d565b91505092915050565b600080fd5b600061018082840312156120e0576120df6120c4565b5b81905092915050565b6000602082840312156120ff576120fe611bf1565b5b600082013567ffffffffffffffff81111561211d5761211c611bf6565b5b612129848285016120c9565b91505092915050565b61213b81611c80565b811461214657600080fd5b50565b60008135905061215881612132565b92915050565b6000806040838503121561217557612174611bf1565b5b600061218385828601611e47565b925050602061219485828601612149565b9150509250929050565b600067ffffffffffffffff8211156121b9576121b8611f50565b5b6121c282611d05565b9050602081019050919050565b60006121e26121dd8461219e565b611fb0565b9050828152602081018484840111156121fe576121fd611f4b565b5b612209848285611ffc565b509392505050565b600082601f83011261222657612225611f46565b5b81356122368482602086016121cf565b91505092915050565b6000806000806080858703121561225957612258611bf1565b5b600061226787828801611e47565b945050602061227887828801611e47565b935050604061228987828801611d92565b925050606085013567ffffffffffffffff8111156122aa576122a9611bf6565b5b6122b687828801612211565b91505092959194509250565b600080604083850312156122d9576122d8611bf1565b5b60006122e785828601611e47565b92505060206122f885828601611e47565b9150509250929050565b7f4e487b7100000000000000000000000000000000000000000000000000000000600052602260045260246000fd5b6000600282049050600182168061234957607f821691505b60208210810361235c5761235b612302565b5b50919050565b7f4552433732313a20617070726f76656420717565727920666f72206e6f6e657860008201527f697374656e7420746f6b656e0000000000000000000000000000000000000000602082015250565b60006123be602c83611cc1565b91506123c982612362565b604082019050919050565b600060208201905081810360008301526123ed816123b1565b9050919050565b7f4552433732313a20617070726f76616c20746f2063757272656e74206f776e6560008201527f7200000000000000000000000000000000000000000000000000000000000000602082015250565b6000612450602183611cc1565b915061245b826123f4565b604082019050919050565b6000602082019050818103600083015261247f81612443565b9050919050565b7f4552433732313a20617070726f76652063616c6c6572206973206e6f74206f7760008201527f6e6572206e6f7220617070726f76656420666f7220616c6c0000000000000000602082015250565b60006124e2603883611cc1565b91506124ed82612486565b604082019050919050565b60006020820190508181036000830152612511816124d5565b9050919050565b7f4552433732313a207472616e736665722063616c6c6572206973206e6f74206f60008201527f776e6572206e6f7220617070726f766564000000000000000000000000000000602082015250565b6000612574603183611cc1565b915061257f82612518565b604082019050919050565b600060208201905081810360008301526125a381612567565b9050919050565b7f4552433732313a206f776e657220717565727920666f72206e6f6e657869737460008201527f656e7420746f6b656e0000000000000000000000000000000000000000000000602082015250565b6000612606602983611cc1565b9150612611826125aa565b604082019050919050565b60006020820190508181036000830152612635816125f9565b9050919050565b7f4552433732313a2062616c616e636520717565727920666f7220746865207a6560008201527f726f206164647265737300000000000000000000000000000000000000000000602082015250565b6000612698602a83611cc1565b91506126a38261263c565b604082019050919050565b600060208201905081810360008301526126c78161268b565b9050919050565b7f4f776e61626c653a2063616c6c6572206973206e6f7420746865206f776e6572600082015250565b6000612704602083611cc1565b915061270f826126ce565b602082019050919050565b60006020820190508181036000830152612733816126f7565b9050919050565b600080fd5b600080fd5b600080fd5b600080833560016020038436030381126127665761276561273a565b5b80840192508235915067ffffffffffffffff8211156127885761278761273f565b5b6020830192506001820236038313156127a4576127a3612744565b5b509250929050565b600081905092915050565b60006127c383856127ac565b93506127d0838584611ffc565b82840190509392505050565b60006127e98284866127b7565b91508190509392505050565b7f5468697320766964656f2068617320616c7265616479206265656e206d696e7460008201527f656420617320616e204e46540000000000000000000000000000000000000000602082015250565b6000612851602c83611cc1565b915061285c826127f5565b604082019050919050565b6000602082019050818103600083015261288081612844565b9050919050565b600082905092915050565b60008190508160005260206000209050919050565b60006020601f8301049050919050565b600082821b905092915050565b6000600883026128f47fffffffffffffffffffffffffffffffffffffffffffffffffffffffffffffffff826128b7565b6128fe86836128b7565b95508019841693508086168417925050509392505050565b6000819050919050565b600061293b61293661293184611d71565b612916565b611d71565b9050919050565b6000819050919050565b61295583612920565b61296961296182612942565b8484546128c4565b825550505050565b600090565b61297e612971565b61298981848461294c565b505050565b5b818110156129ad576129a2600082612976565b60018101905061298f565b5050565b601f8211156129f2576129c381612892565b6129cc846128a7565b810160208510156129db578190505b6129ef6129e7856128a7565b83018261298e565b50505b505050565b600082821c905092915050565b6000612a15600019846008026129f7565b1980831691505092915050565b6000612a2e8383612a04565b9150826002028217905092915050565b612a488383612887565b67ffffffffffffffff811115612a6157612a60611f50565b5b612a6b8254612331565b612a768282856129b1565b6000601f831160018114612aa55760008415612a93578287013590505b612a9d8582612a22565b865550612b05565b601f198416612ab386612892565b60005b82811015612adb57848901358255600182019150602085019450602081019050612ab6565b86831015612af85784890135612af4601f891682612a04565b8355505b6001600288020188555050505b50505050505050565b612b19838383612a3e565b505050565b6000810160008301612b308185612749565b612b3b818386612b0e565b505050506001810160208301612b518185612749565b612b5c818386612b0e565b505050506002810160408301612b728185612749565b612b7d818386612b0e565b505050506003810160608301612b938185612749565b612b9e818386612b0e565b505050506004810160808301612bb48185612749565b612bbf818386612b0e565b505050506005810160a08301612bd58185612749565b612be0818386612b0e565b505050506006810160c08301612bf68185612749565b612c01818386612b0e565b505050506007810160e08301612c178185612749565b612c22818386612b0e565b50505050600881016101008301612c398185612749565b612c44818386612b0e565b50505050600981016101208301612c5b8185612749565b612c66818386612b0e565b50505050600a81016101408301612c7d8185612749565b612c88818386612b0e565b50505050600b81016101608301612c9f8185612749565b612caa818386612b0e565b505050505050565b612cbc8282612b1e565b5050565b6000612ccc8385611cc1565b9350612cd9838584611ffc565b612ce283611d05565b840190509392505050565b60006020820190508181036000830152612d08818486612cc0565b90509392505050565b7f4e487b7100000000000000000000000000000000000000000000000000000000600052601160045260246000fd5b6000612d4b82611d71565b9150612d5683611d71565b9250827fffffffffffffffffffffffffffffffffffffffffffffffffffffffffffffffff03821115612d8b57612d8a612d11565b5b828201905092915050565b7f4552433732314d657461646174613a2055524920717565727920666f72206e6f60008201527f6e6578697374656e7420746f6b656e0000000000000000000000000000000000602082015250565b6000612df2602f83611cc1565b9150612dfd82612d96565b604082019050919050565b60006020820190508181036000830152612e2181612de5565b9050919050565b7f4e6f20766964656f206d6574616461746120666f756e6420666f7220746f6b6560008201527f6e00000000000000000000000000000000000000000000000000000000000000602082015250565b6000612e84602183611cc1565b9150612e8f82612e28565b604082019050919050565b60006020820190508181036000830152612eb381612e77565b9050919050565b60008154612ec781612331565b612ed181866127ac565b94506001821660008114612eec5760018114612efd57612f30565b60ff19831686528186019350612f30565b612f0685612892565b60005b83811015612f2857815481890152600182019150602081019050612f09565b838801955050505b50505092915050565b7f227d2c207b2274726169745f74797065223a2022566964656f204944222c202260008201527f76616c7565223a22000000000000000000000000000000000000000000000000602082015250565b6000612f956028836127ac565b9150612fa082612f39565b602882019050919050565b7f227d2c207b2274726169745f74797065223a20224368616e6e656c204944222c60008201527f202276616c7565223a2200000000000000000000000000000000000000000000602082015250565b6000613007602a836127ac565b915061301282612fab565b602a82019050919050565b7f227d2c207b2274726169745f74797065223a20224368616e6e656c204e616d6560008201527f222c202276616c7565223a220000000000000000000000000000000000000000602082015250565b6000613079602c836127ac565b91506130848261301d565b602c82019050919050565b7f227d2c207b2274726169745f74797065223a20225669657773222c202276616c60008201527f7565223a22000000000000000000000000000000000000000000000000000000602082015250565b60006130eb6025836127ac565b91506130f68261308f565b602582019050919050565b7f227d2c207b2274726169745f74797065223a20224c696b6573222c202276616c60008201527f7565223a22000000000000000000000000000000000000000000000000000000602082015250565b600061315d6025836127ac565b915061316882613101565b602582019050919050565b7f227d2c207b2274726169745f74797065223a20224469736c696b6573222c202260008201527f76616c7565223a22000000000000000000000000000000000000000000000000602082015250565b60006131cf6028836127ac565b91506131da82613173565b602882019050919050565b7f227d2c207b2274726169745f74797065223a2022436f6d6d656e7420636f756e60008201527f74222c202276616c7565223a2200000000000000000000000000000000000000602082015250565b6000613241602d836127ac565b915061324c826131e5565b602d82019050919050565b7f227d5d7d00000000000000000000000000000000000000000000000000000000600082015250565b600061328d6004836127ac565b915061329882613257565b600482019050919050565b60006132af828b612eba565b91506132ba82612f88565b91506132c6828a612eba565b91506132d182612ffa565b91506132dd8289612eba565b91506132e88261306c565b91506132f48288612eba565b91506132ff826130de565b915061330b8287612eba565b915061331682613150565b91506133228286612eba565b915061332d826131c2565b91506133398285612eba565b915061334482613234565b91506133508284612eba565b915061335b82613280565b91508190509998505050505050505050565b7f7b226e616d65223a220000000000000000000000000000000000000000000000600082015250565b60006133a36009836127ac565b91506133ae8261336d565b600982019050919050565b7f222c20226465736372697074696f6e223a220000000000000000000000000000600082015250565b60006133ef6012836127ac565b91506133fa826133b9565b601282019050919050565b7f222c2022696d616765223a220000000000000000000000000000000000000000600082015250565b600061343b600c836127ac565b915061344682613405565b600c82019050919050565b7f222c2022616e696d6174696f6e5f75726c223a22000000000000000000000000600082015250565b60006134876014836127ac565b915061349282613451565b601482019050919050565b7f222c2261747472696275746573223a205b7b2274726169745f74797065223a2060008201527f225075626c6973686564206174222c202276616c7565223a2200000000000000602082015250565b60006134f96039836127ac565b91506135048261349d565b603982019050919050565b600081519050919050565b600081905092915050565b60006135308261350f565b61353a818561351a565b935061354a818560208601611cd2565b80840191505092915050565b600061356182613396565b915061356d8288612eba565b9150613578826133e2565b91506135848287612eba565b915061358f8261342e565b915061359b8286612eba565b91506135a68261347a565b91506135b28285612eba565b91506135bd826134ec565b91506135c98284613525565b91508190509695505050505050565b60006135e48284613525565b915081905092915050565b60006135fa82611cb6565b61360481856127ac565b9350613614818560208601611cd2565b80840191505092915050565b600061362c82856135ef565b915061363882846135ef565b91508190509392505050565b7f4f776e61626c653a206e6577206f776e657220697320746865207a65726f206160008201527f6464726573730000000000000000000000000000000000000000000000000000602082015250565b60006136a0602683611cc1565b91506136ab82613644565b604082019050919050565b600060208201905081810360008301526136cf81613693565b9050919050565b7f4552433732313a206f70657261746f7220717565727920666f72206e6f6e657860008201527f697374656e7420746f6b656e0000000000000000000000000000000000000000602082015250565b6000613732602c83611cc1565b915061373d826136d6565b604082019050919050565b6000602082019050818103600083015261376181613725565b9050919050565b7f4552433732313a207472616e736665722066726f6d20696e636f72726563742060008201527f6f776e6572000000000000000000000000000000000000000000000000000000602082015250565b60006137c4602583611cc1565b91506137cf82613768565b604082019050919050565b600060208201905081810360008301526137f3816137b7565b9050919050565b7f4552433732313a207472616e7366657220746f20746865207a65726f2061646460008201527f7265737300000000000000000000000000000000000000000000000000000000602082015250565b6000613856602483611cc1565b9150613861826137fa565b604082019050919050565b6000602082019050818103600083015261388581613849565b9050919050565b600061389782611d71565b91506138a283611d71565b9250828210156138b5576138b4612d11565b5b828203905092915050565b7f4552433732313a20617070726f766520746f2063616c6c657200000000000000600082015250565b60006138f6601983611cc1565b9150613901826138c0565b602082019050919050565b60006020820190508181036000830152613925816138e9565b9050919050565b7f4552433732313a207472616e7366657220746f206e6f6e20455243373231526560008201527f63656976657220696d706c656d656e7465720000000000000000000000000000602082015250565b6000613988603283611cc1565b91506139938261392c565b604082019050919050565b600060208201905081810360008301526139b78161397b565b9050919050565b7f4e487b7100000000000000000000000000000000000000000000000000000000600052601260045260246000fd5b60006139f882611d71565b9150613a0383611d71565b925082613a1357613a126139be565b5b828204905092915050565b6000613a2982611d71565b9150613a3483611d71565b9250817fffffffffffffffffffffffffffffffffffffffffffffffffffffffffffffffff0483118215151615613a6d57613a6c612d11565b5b828202905092915050565b600082825260208201905092915050565b6000613a948261350f565b613a9e8185613a78565b9350613aae818560208601611cd2565b613ab781611d05565b840191505092915050565b6000608082019050613ad76000830187611e06565b613ae46020830186611e06565b613af16040830185611f1c565b8181036060830152613b038184613a89565b905095945050505050565b600081519050613b1d81611c27565b92915050565b600060208284031215613b3957613b38611bf1565b5b6000613b4784828501613b0e565b91505092915050565b7f4552433732313a206d696e7420746f20746865207a65726f2061646472657373600082015250565b6000613b86602083611cc1565b9150613b9182613b50565b602082019050919050565b60006020820190508181036000830152613bb581613b79565b9050919050565b7f4552433732313a20746f6b656e20616c7265616479206d696e74656400000000600082015250565b6000613bf2601c83611cc1565b9150613bfd82613bbc565b602082019050919050565b60006020820190508181036000830152613c2181613be5565b905091905056fe4142434445464748494a4b4c4d4e4f505152535455565758595a6162636465666768696a6b6c6d6e6f707172737475767778797a303132333435363738392b2fa264697066735822122000ae10302bb33b3942891c52dcc6eedc397c9003ed3615f10dd7faa92299b7bf64736f6c634300080d0033",
  "linkReferences": {},
  "deployedLinkReferences": {}
}